:020000040000FA
:0600000002135702080B79
:03002B0002116D52
:03003300020EB109
:03004300020FCDDC
:0300530002073C65
:03006B00020E97EB
:100083000207A00101FF01010503010F10FEFFADEF
:100093001BAD1BAD1BAD1B631A5D1AAD1B832A0081
:1000A300000000472B000000000C0000000C0001C2
:1000B300FFFF0B0105879500010101009905000071
:1000C300000E06E80364006400B8010202000800A1
:1000D30000050207051E02051E020A0A03B80B02E9
:1000E300803E0102F1FF0114965118003694CB951E
:1000F30000000000000000000000000000000000FD
:1001030000000000000000000000000000CB93018D
:1001130000000001000000010202060100803F34DC
:1001230033333FDB0F49C0DB0F493F24FF2BBC8830
:1001330044A63E18C03F40B5FD6840EAB48640B6C9
:10014300FD6840C503423F1A51123FF304B53F0017
:1001530000803E303132333435363738394142430B
:1001630044454600286E756C6C20706F696E74652B
:100173007229003F3F3F000000807FF9021550B70E
:1001830043BA5100E7DB2E0000A040100000000836
:100193000000000A00000012138560461213A360DA
:1001A3003DE9687008F618F618F618F622748067A9
:1001B300F71201CE090909748067F7221213A360AD
:1001C3001D1213857005191919801A1211F4701F65
:1001D300121209C37003E667331919194007181877
:1001E300182208080874FFF618F618F618F62212F3
:1001F300120960171213F6702192F01213E27019AC
:10020300501720F014080808090909E7F61819E738
:10021300F61819E7F61819E7F6221213E260E6E872
:1002230069701F0808E62480F608E436F618547F40
:10023300B47F0CE654806007F6E418F618F622182B
:100243001822E9C6CC08C6CD08C6CE08C6CFC0E082
:10025300E8C0E0EAC0E0EBC0E009E9F809E7FA0921
:10026300E7FBE6F918E6F8C3EC98ED99EE9AEBC2D2
:10027300E7F5F0EFC2E795F0500E600CEBCFFBEA29
:10028300CEFAE9CDF9E8CCF8EAA2E7D2E7FAEB3304
:10029300FB13F5F0EEA2E7D2E7FEEF33FFC5F01351
:1002A300A2E730E601B313C5F0C3C0E0C0F07F009E
:1002B300C39BFB605B9418600C401AD0E023F9D019
:1002C300E0F802039D8AF0E9486003D2F0E4AFF05E
:1002D300FAF9F8803BEB30E40D89F0EA6003D2F0E1
:1002E300E4AFF0F9CAF8EB30E30D88F0EF6002D227
:1002F300F0AFF0E4CAC9F8EB54076014FBC3EA1388
:10030300FAE913F9E813F8EF135002D2E0FFDBED3B
:10031300D0E0C0E030E739C3E49FFFF5F0EC98FC90
:1003230042F0ED99FD42F0EE9AFE42F0D0E0F9D0B2
:10033300E0F8E5F0607AE923F9EE20E742D802809D
:1003430067C3EF33FFEC33FCED33FDEE33FE80EA9E
:10035300EC28FCED39FDEE3AFED0E023F9D0E0F8CD
:100363004002801BC3EE13FEED13FDEC13FCEF13F1
:100373005002D2E0FF08B800067F7F74FF802EEFA3
:100383003350178CF020F00260100CBC000C0DBD34
:1003930000080EBE000408E860DFE933E813FFEE4F
:1003A3002313FE4F4D4C8008E95480FFE4FEFDFC0F
:1003B300EE33EF33F47004FCFD7E80D0E0FBD0E03D
:1003C300FAD0E0F8D0E0CFC618CEC618CDC618CC08
:1003D300C6F9221213A37004181818221213857079
:1003E3000D74FFF61819F61819F61819F622E754C2
:1003F3008066F61213E2700F1213F670F014F6080B
:10040300F608F608F680D11213F6700CF608F60813
:10041300768008E6447F80EC12120C700C1211F700
:1004230060BFE65480F6E480BB1211F7700519191A
:100433001980A5E869700C763F18768018F618F6CF
:10044300E8F922E6CDC0E018ECC0E0E633CD33CDC9
:10045300D313F6E719FCE7191933CC33C3947F4060
:100463000ECD9D502408E65480F6E418F6800FF470
:10047300043D14501408E6447FF6187680E418F619
:1004830018F6D0E0FCD0E0FD22CCD313CCFD18E469
:10049300C6CBC0E018E4C6CAC0E00808ED08C633FE
:1004A300E613F618E433C675F003C3CA97CA09CB3B
:1004B30097CB199C40047D08802EBD000302057F65
:1004C30016B6FF050606081618C3CA33CACB33CBC4
:1004D30033CA27CA09CB37CB193CC37D08803E18E2
:1004E3007D0820E75CC633C6CA33CACB33CB33DDC2
:1004F300F1D5F0EB30E77BCA97CA09CB974ACB1902
:100503009C406F4B7025E620E0218066187D08C370
:10051300CA97CA09CB97CB199CD3C633C6CA33CA69
:10052300CB33CB3350C9DDE7D5F0E1D3E4C636C6D0
:1005330008C636C608C636C608C636C61818188092
:1005430031C3CA97CA09CB97CB199CB34097C6331B
:10055300C6CA33CACB33CB33DD34D5F02EC6A2E0C3
:10056300C640C8CA27CA09CB37194A70BECB3CB4A8
:1005730080B90808E63308E633601F181818D0E07E
:10058300FAD0E0FBD0E0FCD0E0FD22187D08CA27BA
:10059300CA09CB37CB193CD3808013F618E4B67F56
:1005A30011F618B6FF0EF618C60470D20808768046
:1005B30080CAF618F618F680C5001213A3604F120E
:1005C30013856012E7548066F61211F4701112134A
:1005D300F6703B090909F4F618F618F618F6221214
:1005E300120970151213E208080860EAE6447FF660
:1005F30018768018E4F618F6221213E26016121326
:10060300F67012E4F608F608F608E65480F60909CF
:100613000918181822EAC0E0EBC0E0ECC0E0EDC016
:10062300E0E687F0A4FBACF008E687F0A42CFCE43A
:1006330035F0FA1809E687F0A42C4B60027401CA5E
:1006430035F0FCE433FB09E687F0D2F7A42CCB3575
:10065300F0FC1908E687F0A42BCC35F0FBE433FD5E
:100663000819E687F0D2E7A42C4ACB35F0CD340045
:10067300FC09E687F0D2E7A42DCC35F0FDE433FA8C
:100683000918E687F0D2F7A42CCD35F0CA3400FC64
:1006930008E687F0D2E7D2F7A42ACC35F07A7E2099
:1006A300E70B0ACB33CBCD33CDCC33CC33CB335069
:1006B300147004ED30E00ED2F1E4CD3DCDCC3CCC52
:1006C3003B5005DA05C2F1EB547FC63308E633929B
:1006D300F0FBE73309E733C39A502D2B70190C0D48
:1006E3004C4D70151806E608C333700D20F10AA2AD
:1006F300F013F6E418800B4024E4F630F002768021
:1007030018F618F618F68024D33B14501074FFA281
:10071300F013F6187680E418F618F6800FA2F0139B
:10072300F618E63303F618ECF618EDF6D0E0FDD034
:10073300E0FCD0E0FBD0E0FA22C0E074F2120B2B15
:10074300A2AFE433FED2AFE5A7FFE5A1F5085F54FE
:1007530010600612240575A1EFE5085F54086008D0
:1007630012240B75A1F7802BEFA2E0C0D0E508A2FD
:10077300E092F01212E0158182F05017906198E038
:10078300F8900AF3E0C398A2D265D0335002E8F0A0
:1007930075A1FEEEA2E092AF7F01020B8AC0E07466
:1007A300F2120B2BA2AFE433FED2AF9061A4E0F8B8
:1007B300759B00E59158540860087591F71224530E
:1007C300802AE59158541060087591EF12245980DE
:1007D3001BE8A2E0C0D0E591A2E092F01212E0156E
:1007E3008182F05007E0C2E0F012259D9061A3E002
:1007F300F8E5E9585404600E12257375E9FB90611E
:1008030093E0A2E640F2808BC0E074F2120B2BA2BD
:10081300AFE433FED2AF9061A5E0F8E5BF585404CE
:10082300600675BFFB1225B5020796C3E498F8E48A
:1008330099F912086F8026C3E49AFAE49BFBE92036
:10084300E7E912086FE498F8E499F922C3E498F809
:10085300E499F912086FE498F8E499F9C3E49AFA71
:10086300E49BFB22EB20E7CFE920E7E0B90010BBD4
:100873000008E88AF084F8AAF022E4FBC8FA22EB25
:1008830070227B10C833C8C933C9335007C39AC316
:10089300DBF280069A50012ADBEAC833F4C8C93375
:1008A300F4C9FA2275F008E4C833C8C933C933C997
:1008B3009AC99B5004C92AC93BD5F0ECFBC833F451
:1008C300C8E4C9FA2212090820F01430E72B74FF98
:1008D300FCFBFA747F8022E4FCFBFA7480801AB478
:1008E3008008BC00F2BB00EF800F50EBF9E4C39A21
:1008F300FAE49BFBE49CFCE499C6CC18C6CB18C66F
:10090300CA18C6F922E4C9C608CAC608CBC6D33377
:100913000308CCC63392F0C3947F402E9418401939
:10092300C9B90704CACBCC225025C309CA33CACBE1
:1009330033CBCC33CC33D9F422F4600DC9CCC313FD
:10094300CB13CBCA13CAD9F6CC22E4FCFBFA22148C
:10095300FCFBFA22080808EAC0E0EBC0E086F0E7F7
:10096300A4FA180986F0E7A42AFA180986F0E7A47E
:100973002AFA180986F0E7A42AFA1986F0E7A4FBF5
:10098300E5F02AFA190886F0E7A42BFBE5F03AFA1A
:10099300190886F0E7A42BFBE5F03AFA1818098644
:1009A300F0E7A4C5F02BFBE43AFA1908E7C5F0C653
:1009B300A426F6E5F03BFBE43AFA1886F0E7A4F642
:1009C300E5F00826F6E43B08F6E43A08F6D0E0FB47
:1009D300D0E0FA22080808E630E71112124712099C
:1009E300EF080808C64480C618181822181818E912
:1009F300799EC608CAC608CBC608CCC6C370207980
:100A030096CACBCC7019798ECBCC70137986CC7007
:100A13000EF9802ACA33CACB33CBCC33CC3319304B
:100A2300E7F2CCCBCA3350147004EA30E00DE4CAC9
:100A33003ACACB3BCBCC3CCC500209C3E913C6CC5E
:100A4300182313C6CB18C6CA18C6F922E4CFC0E0D0
:100A5300E4CEC0E0E4CDC0E0E4CCC0E075F020C358
:100A6300E633F608E633F608E633F608E633F61817
:100A73001818EC33FCED33FDEE33FEEF33FFC3EC1C
:100A83009709ED9709EE9709EF97191919400FFF89
:100A9300EC97FC09ED97FD09EE97FE191906D5F0C1
:100AA300BEECF709EDF709EEF709EFF7191919D0BD
:100AB300E0FCD0E0FDD0E0FED0E0FF222518C582A7
:100AC300C0E0E51934FFC583C0E0E518C39582246F
:100AD300F810AF08858319858218800885831985E6
:100AE3008218D2AFCEF0A3E520F0A37808E608F091
:100AF300A3DEFAEFF0A3E58124FAF8E608F0A3E613
:100B030008F0A3E608F0A30808E608F0A3E608F057
:100B1300A315811581D0E0FED0E0F815811581156C
:100B230081E8C0E0EEC0E022C0D02518C582C0E055
:100B3300E51934FFC583C0E0E518C3958224F3109B
:100B4300AF088583198582188008858319858218E3
:100B5300D2AFC8F0A3E9F0A3EAF0A3EBF0A37908BE
:100B6300E709F0A3D8FAECF0A3EDF0A3EEF0A3EFBE
:100B7300F0A3D0E0F0A3D0E0F0A3D0E0F0A3E52011
:100B8300F0A3E5F0F0A322851983851882E0C0E085
:100B9300A3E0F9A3E0FAA3E0FBA37808E0F608A337
:100BA300DFFAE0FCA3E0FDA3E0FEA3E0FFA3E0C0C7
:100BB300E0A3E0C0E0A3E0F5D0A3E0F520A3E0A329
:100BC300F5F010AF0885831985821880088583198D
:100BD300858218D2AFD082D083D0E0F8D0E0321231
:100BE30013D7B90003020C24E490030178BD790EF6
:100BF3008002F0A3D8FCD9FA9010BDAA82AB8390EF
:100C03000086781579028015E493A3AC82AD838ABC
:100C1300828B83F0A3AA82AB838C828D83D8E9D99C
:100C2300E77582207583A574041210B275828775E7
:100C3300832974001210B212124A181818120A4F9C
:100C4300121306191919221213061919190808087B
:100C5300E618181820E7E0120A4F12124A1818185B
:100C630022090909E719191920E7DC080808E61819
:100C7300181820E703020A4F12124A181818120A0A
:100C83004F12124A181818121306191919220E00B6
:100C93000975F0108E1A8F1B85821F85831E851898
:100CA30082851983E0CEA3E0CF851F82851E83EB67
:100CB300C9EAC8EDCBECCAC3E833C8E933C9EA33A0
:100CC300CAEB33CBC3EA9EF51DEB9FF51CB350046F
:100CD300AB1CAA1DEC33CCED33CDD5F0DAAE1AAF95
:100CE3001B221213A3601C12138560171213E270E8
:100CF300071213F67001D322C0D01213F67006D078
:100D0300D0B322C32233D0D0501430E0F6C3E796D9
:100D13000809E7960809E7960809E796B32220E051
:100D2300D5E6970809E6970809E6970809E697B311
:100D3300221213A3601B12138560161213E27007AD
:100D43001213F6600CB322C0D01213F67005D0D084
:100D530022C32233D0D0501330E0EBC3E796080907
:100D6300E7960809E7960809E7962220E0E4E69764
:100D73000809E6970809E6970809E69722D083D081
:100D830082ECC0E0EDC0E0E493A3FCE493A3FDEDAB
:100D93004C600D120E58EC24FFFCED34FFFD80EF88
:100DA300E493A3FCE493A3FDED4C600D120F52EC0E
:100DB30024FFFCED34FFFD80EFD0E0FDD0E0FCE448
:100DC30093A3C0E0E493C0E022851983851882E0F1
:100DD300A3FEE0A3F5207808E0A3F608DFFAE0A37A
:100DE300FFE0A3C0E0E0A3C0E0E0A3C0E0E0A3C055
:100DF300E0E0A3C0E010AF0885821885831980085E
:100E0300858218858319D2AFD083D0820210B8D0DF
:100E130083D082E9C0E0E493A3C386F0C5F095F0E4
:100E2300F908E493A386F0C5F095F0700BE493A35F
:100E3300C3994005E9048002A3E475F002A4258266
:100E4300F582E5F03583F583D0E0F9E493A3C0E0C0
:100E5300E493C0E022C0E0C3E49396087401939640
:100E630018400FE4936670080874019366187000C5
:100E73007019A3A3C3E49396087401939618A3A3CC
:100E8300400DD0E0D0E0D0E0020DBCA3A3A3A3A308
:100E9300A3D0E022C0E074F2120B2BE589A2E1504B
:100EA300031221F5758900C2C57F01020B8AC0E0D8
:100EB30074F2120B2BE58BA2E050031221F5758B14
:100EC30000C2E880E47404800474028000CCC0E0B3
:100ED300EDC0E0E518C39CCCAD1950011D10AF0661
:100EE3008C188D1980068C188D19D2AF121034D03E
:100EF300E0FDD0E0FC2274028000CCC0E0EDC0E055
:100F0300E518C39CCCAD1950011D10AF068C188D8C
:100F13001980068C188D19D2AF120FF0D0E0FDD0D6
:100F2300E0FC221213A3602512138560201213E242
:100F330070030213F6080808E76670101819E766CD
:100F4300700A1819E76670041819E76622F422C0BC
:100F5300E0C0F088F0E493667008087401936618A3
:100F63007000A8F0A3A3700BD0F0D0E0D0E0D0E0E5
:100F7300020DBCA3A3D0F0D0E022D083D082CCC09A
:100F8300E0E493A360061210741470FAE493A36070
:100F9300061211B41470FAD0E0FCE493A3C0E0E4A9
:100FA30093C0E022C008C3E096F50808A3E0964288
:100FB3000808A3E096420808A3E0964208A2D26577
:100FC300D033E5087001D3D00822C0E074F2120BCD
:100FD3002BA2AFE433FED2AFC2C0E5D1A2E45003EB
:100FE300122297EEA2E092AF7F01020B8ACAC0E001
:100FF300E493A3C582CCC582C583CDC583F0A3C5C5
:1010030082CCC582C583CDC583DAE5D0E0CA22A2EE
:10101300E792D65002F40430F70663F0FF05F0B30D
:10102300400384800384F40430D60563F0FF05F0A5
:1010330022CAC0E0E0A3C582CCC582C583CDC583E7
:10104300F0A3C582CCC582C583CDC583DAE6D0E0E3
:10105300CA227009080808226016181818C6C33374
:10106300C608C633C608C633C608C633C6D5E0EAC3
:1010730022C0E0E493A3D39C5010E493A3C39C4009
:101083000AD0E0D0E0D0E0020F9AA3A3A3D0E022DD
:10109300C008C3E096F50808A3E096420808A3E059
:1010A30096420808A3E09645087001D3D00822C0F1
:1010B3009FF59FE473D09F22D083D082C09FE49397
:1010C300C0E0740193C0E0740293F59F227404801E
:1010D3000A74038006740280027401C0E0F40412EF
:1010E30010EBD0E01213B2222518F58210AF08F5E9
:1010F30018400215198008F51840021519D2AF855A
:10110300198322BB0102E722C082C08389828A83BA
:10111300BB0003E08002E493D083D08222601708EF
:101123000808C6A2E713C618C613C618C613C618FE
:10113300C613C6D5E0E922C0D0251810AF08F518AC
:10114300500205198008F51850020519D2AFD0D006
:10115300226016080808C6C313C618C613C618C6E5
:1011630013C618C613C6D5E0EA22C0E0C0D0E8C053
:10117300E0E5A8D2AFC2C7A2E792AFD0E0F8D0D0E3
:10118300D0E032C3E0C696F608A3E0C696F608A3FD
:10119300E0C696F608A3E0C696F622251810AF0817
:1011A300F518400215198008F51840021519D2AF39
:1011B30022C0E0E493A36C7009D0E0D0E0D0E00259
:1011C3000F9AA3A3D0E022E76670100809E76670C0
:1011D3000A0809E76670040809E76622E0667010EA
:1011E30008A3E066700A08A3E066700408A3E0663B
:1011F30022181818E6084608700AE608C333700573
:10120300E633F4220822191919E7094709700AE796
:1012130009C3337005E733F4220922C3E09608A318
:10122300E09608A3E09608A3E096A2D265D0332205
:10123300C3E096F008A3E096F008A3E096F008A3B5
:10124300E096F022181818E4C396F608E496F60818
:10125300E496F608E496F622E026F608A3E036F6CE
:1012630008A3E036F608A3E036F622E056F008A31A
:10127300E056F008A3E056F008A3E056F02270040D
:1012830022600D18C6C333C608C633C6D5E0F418AA
:1012930022E627F60809E637F60809E637F60809CD
:1012A300E637F622E647F60809E647F60809E64771
:1012B300F60809E647F622E056F608A3E056F608D4
:1012C300A3E056F608A3E056F622E026F008A3E0D2
:1012D30036F008A3E036F008A3E036F022C0E0E8D9
:1012E300C0E0E58124FCF8E6A2E7D0E0F8D0E022F4
:1012F300E657F60809E657F60809E657F60809E639
:1013030057F622E4C397F709E497F709E497F70937
:10131300E497F722600D08C6A2E713C618C613C6E2
:10132300D5E0F322C6F4C608C6F4C608C6F4C60858
:10133300C6F4C622C3E09608A3E09608A3E0960885
:10134300A3E09622C3E7960809E7960809E79608FB
:1013530009E7962275D00075814075180175190348
:1013630000020BE2E0F608A3E0F608A3E0F608A308
:10137300E0F622600C08C6C313C618C613C6D5E030
:10138300F422E7094709C3134709336002E733F43B
:1013930022E6F008A3E6F008A3E6F008A3E6F022AD
:1013A300E6084608C3134608336002E633F422CA4C
:1013B300C0E0E6F0A308DAFAD0E0FA22E0FAA3E00C
:1013C300FBA3E0FCA3E0FD22EAF0A3EBF0A3ECF027
:1013D300A3EDF022E5C754F84401F5C7790122E6ED
:1013E300C333184618461846222518F582E43519E2
:1013F300F58322E7C33319471947194722C2AF754B
:10140300D69F020000221210BB6A34001210BBAD3B
:1014130034001210BBFA34001210BB523600121003
:10142300BBD836001210BBF636001210BB203700B3
:101433001210BB3A37001210BB4937001210BB54CD
:1014430037001210BB1438001210BB6D3800121095
:10145300BB2F39001210BB3739001210BBFB390008
:101463001210BB673A001210BB923B001210BBA3D1
:101473003B001210BB193C001210BBAB3C00121016
:10148300BB033D001210BBC33D001210BBEA3D007D
:101493001210BBFC3D001210BB4F3E001210BB8C60
:1014A3003E001210BB993E001210BB1C40001210EC
:1014B300BB7141001210BBA341001210BB364200A6
:1014C3001210BB6F42001210BBBB42001210BBD7FD
:1014D30043001210BB2046001210BB2B4600121013
:1014E300BB3646001210BB4046001210BB4B4600F1
:1014F3001210BB6546001210BB6F46001210BB7979
:1015030046001210BB8446001210BBAC46001210FA
:10151300BB0747001210BB2B47001210BB4F4700FD
:101523001210BBAD47001210BBF147001210BB0DE8
:1015330048001210BB8448001210BBBC48001210B4
:10154300BB0849001210BB6549001210BB1F4A00BB
:101553001210BB034C001210BB5C4C001210BB8C6E
:101563004D001210BBB24D001210BB3B4F001210C6
:10157300BBB752001210BB8954001210BB52560065
:101583001210BBFF56001210BB6A58001210BB09A1
:1015930059001210BB4E59001210BBB8590012105B
:1015A300BBC759001210BB4E5C001210BB005E009B
:1015B3001210BB6D5E001210BB4C5F001210BB65B6
:1015C30060001210BBE261001210BB016200121036
:1015D300BB5662001210BB5B63001210BB83630037
:1015E3001210BBDB63001210BBBA64001210BBFE07
:1015F30064001210BB4965001210BBB465001210E1
:10160300BBF566001210BB5967001210BBA7680038
:101613001210BB076B001210BB386B001210BBF02B
:101623006C001210BB456D001210BB496E00121006
:10163300BBE66E001210BB3F6F001210BBF26F00CF
:101643001210BB9470001210BB3471001210BBD97E
:1016530071001210BB1D97011210BB5C9701121091
:10166300BBA399011210BBED99011210BB089B019A
:101673001210BB789B011210BBAD9B011210BB2152
:101683009D011210BBA49F011210BBCDA00112102B
:10169300BB63A1011210BB6BAA011210BB00AB010B
:1016A3001210BBE7AD011210BBDAAE011210BB3B47
:1016B300AF011210BB57B0011210BB3CB2011210A4
:1016C300BB4DB4011210BBB7B4011210BB89B501F5
:1016D3001210BB40B6011210BB4AB6011210BB7800
:1016E300B6011210BB35B7011210BB0CB8011210B2
:1016F300BBD3B8011210BB85B9011210BBAEB9013F
:101703001210BBD0B9011210BB26BC011210BBFED4
:10171300BC011210BB42BD011210BBAABD011210C5
:10172300BB62BE011210BB94BE011210BBD8BE0136
:101733001210BB0EBF011210BB5ABF011210BBAF78
:10174300BF011210BBB4BF011210BB07C0011210BE
:10175300BB2CC0011210BB3BC1011210BB9FC101C6
:101763001210BB0FC2011210BB9BC2011210BB6847
:10177300C5011210BB4CC6011210BBCFC70112101A
:10178300BB05CA011210BBB3CA011210BB63CB0164
:101793001210BBA4CD011210BB47CE011210BB8E99
:1017A300CE011210BB3AD0011210BB4ED001121061
:1017B300BB58D0011210BB80D0011210BB8CD001DA
:1017C3001210BBABD0011210BB90D2011210BBC7D9
:1017D300D2011210BBD1D2011210BB07D3011210D8
:1017E300BB56D4011210BB9AD4011210BB42D501CF
:1017F3001210BB25D6011210BBD0D6011210BB1C90
:10180300D8011210BB1AD9011210BBC0D901121092
:10181300BB50DA011210BB67DA011210BB9EDA016A
:101823001210BBA8DA011210BBB3DA011210BBD13C
:10183300DA011210BB15DB011210BB72DB011210AF
:10184300BB97DB011210BBB1DB011210BB3DDC0106
:101853001210BB5ADD011210BBC7DD011210BBAE63
:10186300DE011210BBD5DE011210BB49DF011210DD
:10187300BBC4DF011210BBC8E0011210BBBEE10103
:101883001210BB6DE2011210BB80E3011210BB1CEE
:10189300E4011210BBA9E4011210BB87E501121089
:1018A300BBBFE5011210BB17E6011210BBE0E60156
:1018B3001210BB01E7011210BB88E7011210BBAC89
:1018C300E7011210BBCEE7011210BB17E80112109B
:1018D300BB2DEA011210BB14EB011210BBC5EB01C7
:1018E3001210BBFBED011210BB4BEE011210BB8BB0
:1018F300EE011210BBCDEE011210BB29EF01121045
:10190300BB57EF011210BB7BEF011210BBCEEF01EF
:101913001210BBFCEF011210BB35F0011210BB8A91
:10192300F0011210BBF0F0011210BB44F2011210CF
:10193300BB67F4011210BBD4F4011210BBFDF40118
:101943001210BB88F5011210BBEFF5011210BB3A60
:10195300F6011210BB5EF6011210BB82F6011210E3
:10196300BBDDF6011210BBF8F6011210BBB1F70193
:101973001210BBC5CA041210BB04CB041210BB78EF
:1019830080021210BBBE80021210BB9E8102121095
:10199300BBA082021210BBA383021210BB2F8502CD
:1019A3001210BB8D85021210BB4A86021210BB684F
:1019B30087021210BBD987021210BB1588021210BE
:1019C300BB6388021210BB6D88021210BBB1880280
:1019D3001210BB0D89021210BBA889021210BB257D
:1019E3008A021210BBF48A021210BB8D8B021210F2
:1019F300BBAD8B021210BBE38B021210BB148C0223
:101A03001210BBD58C021210BBE58C021210BB392D
:101A13008D021210BB548D021210BB668D02121080
:101A2300BB6F8D021210BBC98D021210BB258E0233
:101A33001210BB718E021210BB8C8E021210BBBD32
:101A43008E021210BBDA8E021210BBE68E02121047
:101A5300BB5A90021210BB7390021210BBDA9002B1
:101A63001210BBED90021210BBFB90021210BBAF21
:101A730091021210BB9392021210BB99930212109F
:101A8300BB2394021210BB2D94021210BB9A940232
:101A93001210BBB194021210BBE394021210BB1CD0
:101AA30095021210BB4695021210BBA795021210A5
:101AB300BBC795021210BBE595021210BB2B960211
:101AC3001210BB5197021210BB9E97021210BBCD8E
:101AD30097021210BB4398021210BB6B98021210AC
:101AE300BBA498021210BBB298021210BB0A99024F
:101AF3001210BB5999021210BB9899021210BBC85D
:101B030099021210BBF499021210BBFF9902121032
:101B1300BB1D9A021210BBDF9A021210BBE99A0294
:101B23001210BB249B021210BB3A9B021210BB8FF4
:101B33009B021210BBA39B021210BBB19C0212109A
:101B4300BBC49C021210BBD99C021210BB7B9D022A
:101B53001210BBFE9D021210BBBC9E021210BBC72B
:101B63009E021210BBF39F021210BB0FA0021210B1
:101B7300BB61A0021210BBA0A0021210BBB5A00251
:101B83001210BB17A1021210BBA6A1021210BBF1C7
:101B9300A1021210BB42A4021210BBC0A402121075
:101BA300BB35A5021210BB57A7021210BB6FA702C9
:101BB3001210BB72A7021210BB7EA7021210BB92B7
:101BC300A7021210BB9AA7021210BBCDA7021210D4
:101BD300BB7DA8021210BBF3A8021210BB66A902B8
:101BE3001210BB1AAA021210BBCFAA021210BBEE2C
:101BF300AA021210BB8EAB021210BB9AAB021210D8
:101C0300BBC5AB021210BBC8AB021210BB32AC0295
:101C13001210BB5AAD021210BB32AE021210BBBD82
:101C2300AE021210BBD6AF021210BB93B002121059
:101C3300BBCCB0021210BBFDB0021210BBBBB10291
:101C43001210BBEBB1021210BBC6B2021210BB5F83
:101C5300B3021210BBEAB3021210BB9BB402121000
:101C6300BB1EB5021210BB50B5021210BB91B502D8
:101C73001210BB8DE0031210BBF2E0031210BB2F56
:101C8300E1031210BB7EE1031210BB94E3031210B5
:101C9300BB77E5031210BBE1E8031210BB1CE90399
:101CA3001210BB3EE9031210BBA1E9031210BBD50E
:101CB300E9031210BBF8E9031210BB25EA03121063
:101CC300BB81EA031210BBC8D4031210BB46D50371
:101CD3001210BB7CD5031210BBE8D5031210BB5BFB
:101CE300D7031210BB77D7031210BBBCD703121054
:101CF300BB4AD8031210BBA3D8031210BBD0D9031D
:101D03001210BBE2DA031210BB3FDB031210BBABB2
:101D1300DB031210BB0CDC031210BB4DDC031210EF
:101D2300BBFADC031210BB0CDE031210BB37DE035D
:101D33001210BB82DE031210BBC9DE031210BB5BA1
:101D4300DF031210BB16E0031210BB10C8041210FD
:101D5300BB8BC8041210BBCDEA031210BBD7EA0336
:101D63001210BB23EB031210BB91EB031210BBB297
:101D7300EB031210BB62EC031210BBF6EE0312105E
:101D8300BBFFEE031210BB52EF031210BB7BEF033A
:101D93001210BBE2EF031210BB73F0031210BBB5BA
:101DA300F0031210BBFFF0031210BB5EF10312101D
:101DB300BB8AF1031210BB1BF2031210BB5AF203CE
:101DC3001210BB99F2031210BBCEF2031210BBE048
:101DD300F2031210BBF2F2031210BB11F303121041
:101DE300BBE32E001210BBD0F3031210BB10F4039D
:101DF3001210BBFDC5041210BB73AF041210BBA9B4
:101E0300AF041210BBF2AF041210BB42B1041210A4
:101E1300BB51E4021210BB90E5021210BBCCE502E9
:101E23001210BB8BE7021210BBB4E7021210BB47C0
:101E3300EA021210BB8BEA021210BB14EC0212105E
:101E4300BBACEC021210BB14ED021210BBB5ED02D9
:101E53001210BBF7ED021210BB37EE021210BBC219
:101E6300EF021210BB4534001210BB57F3021210DD
:101E7300BB85F3021210BBACF3021210BBB5F30225
:101E83001210BB3CF4021210BB5AF7021210BBAE85
:101E9300CC041210BBC4CC041210BB7ACA041210B7
:101EA300BBBBA1041210BBCEA1041210BB6BA204D6
:101EB3001210BBA6A2041210BBC1A2041210BBE6EF
:101EC300A2041210BB2BA3041210BB5CA3041210B8
:101ED300BB8DA3041210BB13A5041210BB4CBF048B
:101EE3001210BB82BF041210BB9EBF041210BBE0D2
:101EF300BF041210BBF0BF041210BB85C004121044
:101F0300BB8FC0041210BB0F93041210BBEB9304DE
:101F13001210BB6A94041210BBAD95041210BBE0FF
:101F230095041210BBBE96041210BBECA30312104F
:101F3300BB41A4031210BB2AA5031210BBC3A50304
:101F43001210BB0DA6031210BB6FA6031210BB83A6
:101F5300A6031210BB65A8031210BBE0A80312105E
:101F6300BB0AA9031210BBE3AA031210BBFEAA0308
:101F73001210BB4DAB031210BB63AB031210BB704B
:101F8300AB031210BBA4AB031210BBBDAB03121007
:101F9300BB5DAC031210BBB7AC031210BB05AD03A2
:101FA3001210BB18AE031210BB89B0031210BBB7DB
:101FB300B0031210BB45B1031210BBA6B10312103C
:101FC300BBABB1031210BBE7B1031210BB49B203A1
:101FD3001210BB19B3031210BB3EB3031210BB485C
:101FE300B3031210BB4BB3031210BBBAB3031210EB
:101FF300BBD5B3031210BBE8B3031210BB14B40375
:102003001210BB4FB4031210BB52B4031210BB8E99
:10201300B4031210BB2CCA041210BB44CA0412101E
:10202300BBEBF7011210BB3AF8011210BBDCF9014C
:102033001210BB9AFB011210BBE2FB011210BB048E
:10204300FD011210BB35FE011210BB57FE01121029
:10205300BBB3FE011210BB35FF011210BBD89203B4
:102063001210BB0393031210BBF093031210BB7542
:1020730094031210BBDE94031210BB2A95031210B3
:10208300BBA995031210BB3B96031210BBC7960363
:102093001210BB0997031210BB759B031210BBF5FB
:1020A3009C031210BBC59D031210BBEC9D031210C1
:1020B300BB4DA0031210BBD9A0031210BBF3A103A5
:1020C3001210BBD2A2031210BB54A3031210BB25E0
:1020D30072001210BBDF72001210BB51730012109A
:1020E300BBED73001210BB5D74001210BB167700BA
:1020F3001210BBED77001210BB5A78001210BBD739
:1021030079001210BBA17A001210BBE87B001210F9
:10211300BBFB7C001210BB947D001210BB5A7E00E7
:102123001210BBE5A7041210BB39A8041210BB910F
:10213300A8041210BBDCA8041210BB3EA9041210A1
:10214300BBD7A9041210BB3FAA041210BB4BAA04AD
:102153001210BB8FB5041210BBC0B5041210BB7AAA
:10216300B6041210BBE0B6041210BBABA5041210E8
:10217300BB37A7041210BB96C8041210BBA2C80435
:102183001210BBC3C8041210BBDBC8041210BB0877
:10219300C9041210BB39CC041210BB4ACC04121070
:1021A300BB69B7041210BB77B7041210BBECCC04A5
:1021B3001210BB69FF011210BB79FF011210BB940F
:1021C300FF011210BBF5FF011210BBFBC404121078
:1021D300BB80C5041210BBE4C5041210BBD8C204F3
:1021E3001210BBFAC2041210BB64C3041210BB6FFB
:1021F300C3041210BBB3C3041210BBDBF7021210EB
:10220300BB6AF8021210BB78F8021210BBB9F802CD
:102213001210BBD3F8021210BB50F9021210BB4AC2
:10222300FA021210BB6FFA021210BB8CFA021210E0
:10223300BBA9FA021210BBDDFA021210BB02FB02A9
:102243001210BB4AFB021210BBC5FB021210BBD516
:10225300FC021210BBB19A041210BBBF9A041210F5
:10226300BB399B041210BB1D9C041210BBD69D04EA
:102273001210BB8CCC041210BB0080041210BB6C78
:1022830080041210BB2B81041210BB358204121080
:10229300BB8E83041210BBE983041210BB3E84047B
:1022A3001210BB4784041210BB5984041210BBC321
:1022B30084041210BBD784041210BB0080031210D5
:1022C300BB9F80031210BB2C82031210BB19830324
:1022D3001210BB3A84031210BBC084031210BB0F4D
:1022E30085031210BB8C85031210BB3686031210B4
:1022F300BBF386031210BB6A87031210BB27880344
:102303001210BBFB88031210BB098A031210BBCF48
:102313008A031210BB638B031210BBEB8B031210E7
:10232300BB1B8D031210BBDD8D031210BB2D8E035F
:102333001210BB908E031210BB938E031210BB17A7
:102343008F031210BB16C5031210BB3FC503121037
:10235300BB72C7031210BB13C8031210BB46CA03D8
:102363001210BB8FCA031210BBBFCA031210BB06E5
:10237300CB031210BB38CB031210BBD1CB0312100B
:10238300BB0BCC031210BB99CC031210BB25CF039C
:102393001210BB73CF031210BBDDCF031210BB4768
:1023A300D0031210BB9E89041210BBF389041210D0
:1023B300BBEF8B041210BB218C041210BB438C04A3
:1023C3001210BB5C8C041210BB758C041210BB7F03
:1023D3008D041210BB1A8E041210BBEBBD04121035
:1023E300BB0FBE041210BB28BE041210BB5BBE049D
:1023F3001210BB8CBE041210BBBABE041210BB1C5D
:10240300BF041210BB2BBF041210BB35BF04121044
:10241300BB42BF041210BB86AA041210BBACAA04B1
:102423001210BBE9AA041210BBF8AA041210BB17BE
:10243300AB041210BB7FAB041210BB88AB041210A9
:10244300BBE7AB041210BB0BAC041210BBCAAC0449
:102453001210BBD7AC041210BBE8AC041210BB982B
:10246300CB041210BBB5CB041210BB918E04121017
:10247300BBEF8F041210BBFC8F041210BB0F900430
:102483001210BB2E90041210BB4490041210BB58C0
:1024930090041210BBCD90041210BB3291041210A1
:1024A300BBE291041210BBB792041210BBC7920493
:1024B3001210BBD692041210BB77C7041210BB9B39
:1024C300C7041210BBC3C7041210BBEBC70412101E
:1024D300BB94FD021210BBBBFD021210BBDCFD025C
:1024E3001210BB41FE021210BB16AD041210BB2F1B
:1024F300AD041210BB3BAD041210BB4FAD04121060
:10250300BB6DAD041210BB77AD041210BB81AD04DB
:102513001210BB94AD041210BBE7AD041210BB2024
:10252300AE041210BB4FAE041210BB9DAE041210CA
:10253300BBECAE041210BB07AF041210BB11AF0407
:102543001210BB22AF041210BB68AF041210BBAE53
:102553007F001210BB39F4031210BB63F403121093
:10256300BB7FF4031210BB92F4031210BBA8F40355
:102573001210BB05F5031210BB38F5031210BB7420
:10258300F9031210BB9AFA031210BBCDFA0312100F
:10259300BB19FB031210BB45FC031210BB6DFC03FC
:1025A3001210BB82FC031210BB92FC031210BBD6A9
:1025B300FC031210BB37FD031210BB47FD031210BF
:1025C300BB92C0041210BBADC0041210BBD6C00432
:1025D3001210BBF0C0041210BB15C1041210BB349F
:1025E300C1041210BB4CC1041210BB7AC1041210F7
:1025F300BB94C1041210BB54CB041210BB3B9E040A
:102603001210BB429E041210BB4E9F041210BB7EDD
:102613009F041210BBA49F041210BBC79F04121087
:10262300BBE99F041210BB23A0041210BB89A004B2
:102633001210BBC2A0041210BB0EA1041210BB3BAC
:10264300A1041210BB5BA1041210BB75FD03121091
:10265300BBFCFD031210BB0DFE031210BB1EFE03D9
:102663001210BB6CFE031210BBBAFE031210BB1296
:10267300FF031210BB78FF031210BBA4FF03121059
:10268300BB06C4041210BB1CC4041210BB32C40426
:102693001210BB44C4041210BB77C4041210BB85D0
:1026A300C4041210BB93C4041210BBC4C40412109C
:1026B300BBA7B3041210BBBFB3041210BBADB40469
:1026C3001210BB8CB5041210BBC5C1041210BB376A
:1026D300C2041210BB75C2041210BBB6C20412109E
:1026E300BBE396041210BB0297041210BB5197046C
:1026F3001210BB6D97041210BB9E97041210BBAE51
:1027030097041210BBBB97041210BBC89704121096
:10271300BBB498041210BBF298041210BBFC9804CB
:102723001210BB0C9A041210BB179A041210BB2987
:102733009A041210BB329A041210BB3C9A04121072
:10274300BBE184041210BB2689041210BB34890434
:102753001210BB21B9041210BB0ACC041210BBC760
:10276300BA041210BB18C9041210BBD6C904121044
:10277300BB0ECB041210BBD3FF031210BB79C904E9
:102783001210BB8AC9041210BBA5B1041210BBD02E
:10279300C6041210BBFAC6041210BB5BBC041210B1
:1027A300BBD4CB041210BB64CC041210BBCECC043C
:1027B3001210BBC7B4031210BBE5B9031210BB015F
:1027C30034001210BB592E001210BBF82D0012104A
:1027D300BBA62D001210BB942D001210BB2AE402DD
:1027E3001210BB0CE4021210BBD8E2021210BB356C
:1027F300E2021210BBE8E0021210BB93DE021210D9
:10280300BB29DE021210BB4133001210BB79320028
:102813001210BBE1DD021210BB53DD021210BBC16B
:1028230031001210BB1131001210BB46DD02121031
:10283300BB40DA021210BBA2D7021210BB6BD60246
:102843001210BBBFD5021210BB05D4021210BBB5C8
:10285300D1021210BB3CD1021210BBE3D002121002
:10286300BB73D0021210BB4AD0021210BB2ACE0295
:102873001210BBF6CD021210BBC3CD021210BBA7C0
:10288300CD021210BBC0CC021210BB78CC021210C6
:10289300BBC3CA021210BB43CA021210BB40CA0216
:1028A3001210BB41C9021210BB0FC9021210BB4C5C
:1028B300C8021210BB77C6021210BBC03000121040
:1028C300BB9930001210BB5530001210BB1A3000F8
:1028D3001210BBF42F001210BB08C6021210BBDA91
:1028E300C5021210BBD7C5021210BBC4C502121019
:1028F300BBDB2F001210BB6FC5021210BB5EC502FB
:102903001210BB50C4021210BB1AC4021210BB3205
:10291300F1021210BBC6B5021210BBC8C3021210DB
:10292300BB69C3021210BB38C3021210BB00C00242
:102933001210BBC0BF021210BBB4BF021210BB14F3
:10294300BF021210BB54BE021210BBD6BB02121040
:10295300BB67B9021210BB25B9021210BBF9B7024B
:102963001210BBAEB7021210BBEDB6021210BB3091
:10297300B6021210BB872F001210BB00B602121052
:10298300BB1AF30300000080FB000022E473000184
:1029930036360101000102010001030100010401B7
:1029A300060605020000070100340801000F0904B0
:1029B30001010D0100FF0E080000170200001901BC
:1029C30000FF1A0100011B0100FE1C0100081D028B
:1029D30000001F010001200100012102000023016A
:1029E300000F24020000260100012701000828022D
:1029F30000FF2A0100072B0102402C0100002D01DA
:102A030000012E0100012F0100FF30010B1C3108D2
:102A130000003A0100083B01000F2F0100000302F0
:102A2300710230016002110270020102020202020D
:102A33008002100261023A004100630273027202D3
:102A43006202430200021302380000020002040281
:102A53001202000200020002000204020402370014
:102A630037003C0244020002390000020002650202
:102A73000002350281020002050282028302000283
:102A83000300710030016000110070003102200367
:102A93005004800010006100000014006300730004
:102AA30072006200430000001300060000000000F3
:102AB30004001200000000000000000004000400F5
:102AC300370037003C024400000000000000000013
:102AD3006500000035008100000005000000830050
:102AE300000003047104020460041104700402046E
:102AF30002040104020410046104000414046304C6
:102B030073047204620443040004130406040004FF
:102B1300000404041204000400040004000451042B
:102B230064000004000400044404000400040004DE
:102B330000046504000435048104640005040004F2
:102B4300830400040103710301030103010301036F
:102B53000103220302030103100300030003000324
:102B630000030003000300034203000324030603DE
:102B73000003000304031203250323032503230394
:102B830004030403000300030003440300030003DE
:102B930023030003650321003503810300030503B9
:102BA300000300030003010171010101010111018F
:102BB30001013101010101018001100161013B00AB
:102BC30014006301730172016201430100011301E7
:102BD30006013D013500040112010001000100015D
:102BE300000104010401330133013C0144013201BA
:102BF300360000010001650100013500810100017B
:102C03000501820183010001360001000600000076
:102C13000F0000000000000000000000000003FFA0
:102C2300FF00000403FFFF0000FFFF0FF401000596
:102C3300C4040320000100030B0000000000000097
:102C43000003010F0000E7201300AB200100E72081
:102C53000200752003007B200400812005008720EB
:102C630006009320FFFF0000019D1606C71608C14A
:102C7300160BDF1610191602A31605B51607A916AB
:102C83000C7F160D9116FF000003EAF5E5D5D5C5B7
:102C9300B5A5959585857575656555554545353551
:102CA3002525151505BD1AED1AC31AC91AE71ADB2E
:102CB3001AD51AF31AF91AFF1A0B1BCF1AB71AB13E
:102CC3001A00160F00000B150B020002220F320030
:102CD3000006AD1BBF1BC51B871ACB1B811A8D1AA0
:102CE300C119BB19F719FD19F119A9190D1C2B1CD1
:102CF300311C131C1F1C191C303016181920231AE1
:102D03001C1E300C0E020B040B0A0708000F0038C0
:102D13003C3E363B3B352B432C30301718192130C2
:102D23001B1D1F300001191618161615230300006A
:102D3300034948424D1817250502011CD11BD71B17
:102D4300E31BDD1BE11A051B251C111B171B0204CA
:102D530002010101010902CD19D319C719031A0090
:102D63000000000000D919EB1900BE040A15000485
:102D7300007F00E8030C0028000000000003081097
:102D83000C0A03080900040001FF1E1E0C05040FB2
:102D930008C082C0838A828B83E0D2E7F0121FDFF0
:102DA300023E48C082C08379001232601261B1C012
:102DB30082C083900334124F37D083D082C3E09C08
:102DC300A3E09D500C126885FAA3E0122DD7600191
:102DD30009023E48FBEA75F00BA4FAA8F075F00B64
:102DE300EBA428FB900336E02AF8A3E03B8882F5A6
:102DF30083E0540F2274F7120ABF8908123260125B
:102E03003306ACF075F00BE9A42CF9900336E028F7
:102E1300FEA3E039FF74016508600674026508705B
:102E2300208A828B831232F2124228740265087060
:102E33001B1231B112333970138E828F83E4F08009
:102E43000BEA2403FCEB1232D41232E0EEFAEFFB6E
:102E53001227D702418574F4120ABF1271AC7900AC
:102E63008E828F83E06076890A890B8065E50A7517
:102E7300F00BA4FAA8F075F00BE50B122DE47046E5
:102E8300E50A75F00BA4F8AAF075F00BE50B123305
:102E9300188E828F83E08508828509831233FA8531
:102EA3000882850983A3124228EE2403FCEF123221
:102EB300DD124006125C2BAA08AB091227D7790151
:102EC300900334125640E50A2401F50AE50B340059
:102ED300F50B1231B9E50A9AE50B9B40900243D2F8
:102EE30074F5120ABFEAFEEBFF740B1213EC1240E7
:102EF3000B750A01EC4D602BEC1271C8ED1261B138
:102F030012422079011227CBE5084509606F850835
:102F130082850983A31271B67902AA08AB09122725
:102F2300CB805AE5084509602B1261B512487F1220
:102F33004007123323700CEEFAEFFB1227C5E9F5B5
:102F43000A80CBEE2403FA12325B70317903EEFA76
:102F5300EFFB80CA8E828F83A3E064FE7003A3E03D
:102F6300F4700BEE24030A0A0A12325B700CEEFAB9
:102F7300EFFB1227C5E9F50A8003750A00A90A7F4A
:102F830003020DCC74F7120ABF900334124195EA81
:102F93004B602FEA75F00BA4FAA8F075F00BEBA4C5
:102FA30028FBEAFEEBFF121E0590033612419590B3
:102FB30003361254856012EEFCEFFD7900121D6991
:102FC3008007900336E4F0A3F002418590033412A6
:102FD3004BEFC3EE98EF9922C082C083EC4D60059E
:102FE3001226DB80097C087D007900121D69023EF0
:102FF3004874F6120ABF7900EA4B60187800880813
:103003001264F8EB12688160047901780808E8C358
:10301300940840EA02423174F7120ABF74F31211A2
:103023009EECFEEDFF851882851983E4F0041213EC
:10303300ECEAF0A3EB1259B174031213ECAC82ADBA
:1030430083EEFAEFFB1228F1EEFAEFFB1228D3021C
:10305300418074F7120ABF74F312119EECFEEDFF68
:10306300851882851983E4F0EAFCEBFD74031213DF
:10307300EC1233F374011213EC12421C8E828F8311
:1030830012422874FE68700374FF6960047901803A
:1030930002790002418074F7120ABFEAFEEBFF12C5
:1030A30030F770141231028E828F83E0F4F88A8233
:1030B3008B83E058F01227D7A90802418574F712D1
:1030C3000ABFEAFEEBFF7508008E828F83E0602261
:1030D3001230F7701D1231028A828B83E08F838E48
:1030E30082F8E058700CE0F88A828B83E048F01293
:1030F30027D780C41227D1E9F50874016508221285
:1031030071C112330A12324CFAA3E039FB2274F470
:10311300120ABF8A088B097C007D001231B112327A
:10312300E01232711271B37900850882850983A395
:10313300E064FE7003A3E0F460717E007F008062B0
:10314300EEFAEF122DD76057EEFAEFFBEA75F00BAC
:10315300A4FAA8F075F00BEBA428FB900336E02A41
:10316300F50AA3E03BF50B850882850983A3125872
:10317300FF850A82850B83A3E06A7003A3E06B706B
:103183001EE50A2403FAE50B12325C700AE50A24F1
:1031930003FCE50B1232DD12326579011261C712AD
:1031A3003B501231B9EE9AEF9B40950243D2EA2489
:1031B300030A0A0AEB22900334125D9EC32274F3BE
:1031C300120ABF8A088B098A828B83A31271B612F3
:1031D30032601271B3750C001231B112325C70544B
:1031E3007E007F00804912323EFAA3E0398A82F5DD
:1031F30083E0540F603612323EF50AA3E039F50B33
:10320300E50A2403FCE50B1232E73400FB1226D552
:10321300E964017017850A82850B83A3125E5FA39D
:10322300124228123265750C011261C7123B50120B
:103233002FCF40B2A90C7F05020DCCEEF8EFF9E8D1
:1032430075F00BA4F812324C22AAF075F00BE9A426
:103253002AF9900336E02822EF123333221271C782
:10326300EB221232711261C2EEF0A3EFF022E508F5
:103273001271C8E5092274F5120ABFEAFEEBFF8E4C
:10328300828F83A31271B67C007D00EE24030A0AA9
:103293000AEF1232E0EEFAEFFB1227D1E9F50A74D6
:1032A30001650A70291271C1123306AAF075F00B79
:1032B300E9123318850882F5831232F21233237030
:1032C3000DE5082403FCE5091232D41232E0022F83
:1032D300803400FDEE2403FAEF221232E73400FBC0
:1032E3001228F1223400FDE5082403FAE50922A39C
:1032F3001232F7221232FB22E0F8A3E0F98E828F1A
:1033030083A32212330A223400F583124BF3E875A8
:10331300F00BA4F822123252F508A3E039F5092282
:10332300E8F0A3E9F0E5082403FAE50912333322B0
:103333001233396401223400FB1228D3E92274F3D7
:10334300120ABF74E612119E1271AC750C01750856
:1033530000750900750A00750B00851882851983AD
:10336300E4F0EE2403FCEF3400FD74031213EC12BB
:1033730033F3E964017023740B1213EC12422074CB
:10338300011213EC1259037003A3E069605185180D
:1033930082851983858208858309740D1213ECE4F1
:1033A3001233FA740E1213EC124228740D1213EC3A
:1033B300AA82AB83122825E96401700B740D1213E2
:1033C300EC85820A85830B780A1210D8AC08AD0904
:1033D300EEFAEFFB121DE1740212113AE9F50CEE5D
:1033E300FAEFFB1228BBA90C741A12113A023239F4
:1033F3001236C612281F22124190124BEF22C082AE
:10340300C0837800790080031234F11231B9E89A4D
:10341300E99B5029E8FAE9FBEA75F00BA4FAACF052
:1034230075F00BEBA42CFB900336E02AFCA3E03BE6
:103433008C82F583E0540F70CF790080027901020A
:103443003E48C082C083902D70124C45EC75F0123B
:10345300A4FCA8F075F012EDA428FD79FF7A637B34
:103463000B121D69023E4874F7120ABFE9FEEAFF18
:103473007A007B00780079008028E8FCE9FDEC7590
:10348300F012A4FC85F00875F012EDA4250812399A
:1034930006C39E400AE0FCEFC39C4003123A251288
:1034A30034F11238FA40D3024185C082C0837800D8
:1034B300790080031234F11234E5501F12390AF4F3
:1034C30070F2E875F012A4F8AAF075F012E9A42AD4
:1034D300F9746328FA740B39FB80047A007B0002C9
:1034E3003E48902D701239BBC3E89AE99B22E82429
:1034F3000108E93400F92274F0120ABF74F31211BF
:103503009E8A0A8B0B8C0C8D0D8908EC450D601679
:10351300AA0CAB0D1214398A0E8B0FAE0EAF0FEE41
:103523004F60030235B812140F8A0E8B0FA80EA931
:103533000FE8FEE9FFE849607C902D7E12361A60A1
:10354300227403650860067404650870167A0479AA
:1035530003121409902D7E12363140077A007B0046
:10356300023617902D7C12361A601B7401650860B1
:103573000674026508700F7A027901121409902DFE
:103583007C12363150D68518828519837401F01266
:1035930013EC125C2BAC0CAD0D74031213EC12364E
:1035A300BF740B1213EC124013124608E4125C139F
:1035B3001219018004EE4F604A780074FF2508C396
:1035C3009404500278048E828F83125C2B8E828F38
:1035D30083A3A3A3A3E508F0E88E828F83A3A3A309
:1035E300A3A3125C331208671239D28E828F83A38E
:1035F300A3A3A3A3A3A3F01239C91213BF1261ABF0
:103603001213CB12361F40059010C1E4F01217DBE2
:10361300EEFAEFFB024BF9125D4D49227A04790071
:10362300121409902D70126867EA98EB99221236EA
:103633004A75832D758270E493C398F8A3E4939934
:10364300F9C3EA98EB9922E493F8740193F922748D
:10365300F2120ABF74F312119E8A088B09ECFEED75
:10366300FF750A00EEFAEFFB1214398A0C8B0DA8D2
:103673000CA90DE849603E88828983E065087004DF
:10368300A3E06509602F88828983A3A3A3A3E0C372
:10369300940550211260598518828519837401F0AD
:1036A3001213EC12605DEEFCEFFD74031213EC12C7
:1036B30036BF750A01A90A740D0256F71236C612EF
:1036C300280722AA82AB831228F1851882851983E1
:1036D300AA82AB832274F6120ABF123714600FA3B7
:1036E300A3A3A3E014C394045004790180027900D6
:1036F30002423174F6120ABF123714600FA3A3A358
:10370300A3E014C3940250047901800279000242B9
:10371300311214338A828B83E58245832274F61235
:103723000ABF123714600BA3A3A3A3E070047901AB
:1037330080027900024231C082C083EAFCEBFD7A49
:10374300007B00023E45C082C0837C007D00023EB8
:103753004574F4120ABF74F312119EEAFEEBFF8C58
:103763000A8D0BC3EC94F8ED94FF4007EE4F700302
:1037730002380D750800750900802E851882851999
:10378300837401F0123B781213EC123B86601374BE
:10379300031213ECAC82AD83EEFAEFFB1226D5E9EC
:1037A3007049E50824011239A6902D70E4125D5585
:1037B300E50898E509995052E50875F012A4F8AAAE
:1037C300F075F012E509A42AF912689A60D4EE4F55
:1037D30070A974FF650A700474FF650B60C4123B23
:1037E30068650A7004A3E0650B70B7E50875F0120D
:1037F300A4F508A8F075F012E509A428F509746387
:103803002508FA740B3509FB80047A007B00024318
:10381300CD74F4120ABF74F312119E7508001214CA
:10382300398A0A8B0BAE0AAF0BEE4F602A851882DA
:10383300851983740112418AF8A3E0F9740B1213FA
:10384300EC1242AB1228C17C127D0079FFEEFAEF35
:10385300FB121D6975080112361F50099010C174BF
:1038630001F01217DBA9080243CD74F7120ABFE96E
:10387300FE74FE6A700374FF6B7800790070058034
:10388300521234F11238FA504AE8FCE9FDEC75F0B3
:1038930012A4FCAFF075F012EDA42F123906F460F8
:1038A300E0E8FCE9FDEC75F012A4FC75F012EDA460
:1038B3002FFD74632CF582740B3DF583E06A70036E
:1038C300A3E06B70BC800912390A14C39404401737
:1038D3001234F11234E55018EE70EC12390A640117
:1038E3006005E0640370E9123B59FAA3E0FB80042E
:1038F3007AFE7BFF024185902D70124C49C3E89CF0
:10390300E99D22123A5A22E8FAE9FBEA75F012A479
:10391300FAACF075F012EBA42CFB74672AF58274F1
:103923000B3BF583E02212144B023E48C082C08356
:10393300790180F274F0120ABF8A0A8B0B7A047938
:10394300011214098A0C8B0DEA450D603EEAC3335C
:10395300FAEB33FB121E058A088B09AE08AF09EE9A
:103963004F60237AFE7BFF12145174FE6A70037456
:10397300FF6B601B850882850983124195E5082446
:10398300021239A680E1750C0080047E007F008559
:103993000A82850B83E50CF0EEFAEFFB024BFEE5A2
:1039A300082407F508E5093400F50922902D701263
:1039B3004C49C3EA9CEB9D22E493FA740193FB22E6
:1039C300121D5D7403221261BCE4F090967322E829
:1039D3008E828F83A3A3A3A3A3A3A3A31239F474F7
:1039E300011239F4A3F0EE24101261BFE4F0A3F046
:1039F30022124614A3A3A322C082C0837A007B00B1
:103A0300800419123A251239AF5010123A44C39464
:103A13000550F0E970EC123A2E80047A007B000224
:103A23003E48EA24010AEB3400FB22EA75F012A4B3
:103A3300FA75F012EBA428FB74632AFA740B3BFBB0
:103A430022EAFCEBFDEC75F012A4FCA8F075F01271
:103A5300EDA428123A5A22FD74672CF582740B3DAB
:103A6300F583E02274F7120ABF74F312119E7E00ED
:103A73007F00023B0CE50875F017A4F8A9F0126A61
:103A8300FBFAA3E0FBEEF8EFF9E875F012A4F8AC4B
:103A9300F075F012E9A42C123B676A7003A3E06B84
:103AA300603FE50875F017A4F8AAF0EA126AFAF87D
:103AB300A3E0F974011213ECE0687003A3E06960FA
:103AC30020E50875F017A4F8EAF974DF28FC740CF4
:103AD30039FD74031213ECAA82AB831226D5E96075
:103AE30014E50875F017A4F8A9F074DD28FA740C2E
:103AF30039FB12190D0508902D82E493F8E508C3EC
:103B0300985003023A78123B50902D70126E415038
:103B130039EEF8EFF9123B59F47003A3E0F460E6D1
:103B23008518828519837401F0EEF8EFF9E875F0D2
:103B330012A4F875F012E9A42AF9123B781213ECD7
:103B4300123B8660C175080080AD024180EE2401FE
:103B53000EEF3400FF22E875F012A4F8AAF075F016
:103B630012E9A42AF9123B6C22746328F582740BC0
:103B730039F583E022746528F582740B39124BED15
:103B8300740B22E8F0A3E91242B312280DE922C014
:103B930082C08390034174AFF0A37416F0023E48D1
:103BA30074F7120ABFEAFEEBFF900377E064086044
:103BB3001BE0640460168E828F83E05403640170FB
:103BC300481240061246FEE06406703D8E828F83E3
:103BD300A3A3E064FE7003A3E0F4602D8E828F83C1
:103BE300A3A312421C900368E0687003A3E069700A
:103BF3000BEE2415F582EF1268816008121769E94C
:103C0300F508800812176F80F67508C2EEFAEFFB0D
:103C1300121E0B0230BB74F4120ABF8A088B098A86
:103C2300828B83E0F8A3E0FAE82AFAE43400FB127B
:103C33001E058A0A8B0BAE0AAF0BEE4F6063850835
:103C430082850983E0FC7D007900121D698E828FD5
:103C530083A3A31271B61217AB8E828F83A3A3A380
:103C6300A3124195850882850983E0F8EE28F8EFD1
:103C73003400124224850882850983A3E0C0E0EE64
:103C8300240D1261AED0E0F01217BDEE240E1261C6
:103C9300AEE9125860E0C0E0EE24111261AED0E04C
:103CA300F0EEFAEFFB0243D274F4120ABF74EB1284
:103CB300119E8A088B098C0A8D0BE9FE900377E02D
:103CC30064046005E06408700479C2802EA3780858
:103CD300121394EE90037E123E861213947405120F
:103CE30013ECE9F074041213EC7401F0740712136B
:103CF300ECE4F09003777402123DE374150243CFB2
:103D030074F6120ABF74EB12119EEAFEEBFF125413
:103D1300826003023DA77A077B00121E05900339D8
:103D230012419512548260788E828F831213BF9052
:103D3300033A1247011213CB12707AC0E0123DB35B
:103D4300D0E0F0EE2405FAEF3400FB8A088B098AF1
:103D530082F583E0C0E0123DAED0E01243C9E0C07B
:103D6300E0123DAEA3D0E01242091213BF851882C0
:103D73008519831213CB88828983E0C0E07405120E
:103D830013ECD0E0F0850882850983E0C0E0740479
:103D93001213ECD0E0F074071213EC123DE280062C
:103DA300791080027901741502422E123DB3A322C9
:103DB300900339E0FAA3E0F5838A82A3A3A3A322A5
:103DC300C082C083125482600D900339125D8C90BF
:103DD3000339E4F0A3F01216D91218AD023E48E4F9
:103DE3001242B312270B22C082C083900338E070C3
:103DF300031220A5121493804CC082C08390033811
:103E0300E09010C07004E4F0802D7401F09003384A
:103E1300E0F460237C41E0C394415002E0FCECF801
:103E2300E0C398F0EC75F0E8A4CCA8F075F003A417
:103E330028FD7A80124C517AC07B1079411226F307
:103E4300800312143FD083D0820210B874F4120A94
:103E5300BF74EB12119E8A088B098C0A8D0B900399
:103E6300777401123E8612139474051213ECE9F071
:103E730074041213EC7403F074071213EC123DE292
:103E8300023CFE12421478082274F7120ABF7C0126
:103E93001214A502418574F2120ABF74FC12119E1A
:103EA300E9851882851983F0EAFEEBFF8C0A9003FB
:103EB30075124F371216CD8A088B09EA450970052A
:103EC30079CA0240018A828B83A3A3A3A3A3A3A3DA
:103ED300E064FE7003A3E0F4700579C3024001902F
:103EE30003751258FF121913850882850983A3A34A
:103EF300A3A3A3A3A3A3A3A3E004900388124164F1
:103F030074021213EC7402F0141213ECAA82AB8342
:103F13001218178A0C8B0DAE0CAF0DEE4F70030207
:103F23003FF81240061248737406F0A3A882A983CF
:103F3300900362125DC9124BCCF0EE24131261AEF2
:103F43007401125C0B7440F0A3E4125859A3A3123A
:103F53004013124228EE24111261AEE50AF0EEFA84
:103F6300EFFB12146FE9FE6003023FFA90037774CC
:103F730009F01239A2AA08FB794B1226F3850882AD
:103F830085098312415612422890036AE0F8851886
:103F930082851983E068600CE090036A1242AF796E
:103FA300E11226F390110112421C901103E0687094
:103FB30003A3E069601A90033B1242289011031295
:103FC30058FF1217D5901103124F377A01124C5133
:103FD3007A007B049003C2E0F9121EC5901103120C
:103FE300400B74027808121281AC08AD09FA7B0405
:103FF300124C5380027E10900582E4F0EEF97404B3
:104003000256F7EE1261BD22E0F508A3E0F509229E
:10401300124017221232FBA32274F5120ABF74E274
:1040230012119E851882851983ECF0A3EDF0EAFE48
:10403300EBFF890874291213ECE0F509742C1213B1
:10404300ECE0F50A900377E064046005E06408702F
:104053000579C202414E742A1213ECE064FE700328
:10406300A3E0F4700579C302414E90037774031201
:1040730042AF79501226F3742A1213ECAA82AB834F
:10408300794B1226F385188285198312415D1242FA
:1040930028E50890036AF0742A1213EC12415612B1
:1040A3004228E50990036212416474CE55094480A5
:1040B300C0E074121213ECD0E0F07401250A9003EF
:1040C30088F0740F1213EC7402F0742A1213EC12BA
:1040D300421C74071213ECE8F0A3E912419B74101D
:1040E3001213EC12422874051213ECE508F0741B4A
:1040F3001213ECE4F090037D740FF07A7D7B037967
:10410300541226F390037C740FF07A7C7B03794777
:104113001226F390037CE0C3940F5023740512130B
:10412300ECE0C0E074021213ECD0E0F0740412135C
:10413300EC7401F0041213ECAA82AB8312271774F8
:10414300051213ECAA82AB831226F9741E12113ADC
:10415300022F82124BEF90036B22124BEF900375E9
:1041630022F0EEFCEFFD7A897B031226DB2274F743
:10417300120ABFEB90037FF01216BB8005740D1279
:10418300113A7F01020DCC124190A3E022124209A1
:10419300A322EAF0A3EBF02212420FF8A3E0F922E4
:1041A30074F7120ABF74F812119EEAFEEBFF79004E
:1041B300900377E06408704485188285198374FD41
:1041C300F0A374FFF01217A574021213EC124195B9
:1041D30074051213ECE4124190E0C0E0740412136E
:1041E300ECD0E0124204C0E074061213ECD0E0F00D
:1041F30074071213ECE41242AF1217F97408024168
:1042030082124209E022F08E828F8322124214E04E
:1042130022F085188285198322124BEF22E0F8A33E
:10422300E0F91261BCE8F0A3E9F02212113A7F022F
:10423300020DCCC082C083900349745FF0A3741550
:10424300F09003EF7453F0A37418F090034D74953A
:10425300F0A37415F090034F745FF0A37415F090FE
:104263000351749BF0A37415F0023E4874F4120AD0
:10427300BF74F912119E8A088B098C0A8D0B85185D
:1042830082851983780812139474041213ECE9F0ED
:1042930074051213ECE4F074061213ECE41242AF4B
:1042A30012148174070243CFE8F0A3E91242B32248
:1042B300124214AA82AB832274F4120ABF8A088BB7
:1042C300098A828B831261CAEE4F70030243C7903F
:1042D300031212548560158A828B83A3A3E0F9EE3F
:1042E300FAEFFB90031312470112298F8E828F83FB
:1042F300A3A3A3A3A3A3A3A3A3E0640270748E82C6
:104303008F83A3A3A3A3A3A3E0540270030243993F
:10431300850882850983A3A3E064E960798E828F8F
:1043230083A3A3A3A3A3A3A3A3A3A3E070149011A4
:1043330016E0048E828F83A3A3A3A3A3A3A3A3A3A3
:10434300A3F08E828F83A3A3A3A3A3A3A3A3A3A357
:10435300E0141243C9A3A3A37404F0901117125CD1
:1043630005E8F0A3E9126CDE8B0BEA450B70031230
:1043730066BC8E828F83A3A3A3A3A3A3A3A3A3E05B
:10438300640260128E828F83A3A3A3A3A3A3A3A318
:10439300A3E06406702E8E828F83A3A3A3A3A3A39B
:1043A300E0A2E0501F850882850983A3A3E0F9EE0C
:1043B300FAEFFB1228798E828F83A3A3A3A3A3A36F
:1043C300E054FEF0800912461022740D12113A7F58
:1043D30004020DCC74EC120ABF74DD12119EEAFEC6
:1043E300EBFF8C088D0974371213EC780C121367EA
:1043F300750A0074051213ECAC82AD831227FB74AB
:10440300121213ECE0700874151213ECE0602074C0
:10441300051213ECE0A2E6501E8E828F83A3A3A3A2
:10442300A3A3A3A3A3A31258FF12182FE96008792B
:10443300031226C30245F674051213ECE0540C6410
:10444300047005750B018003750B00E0A2E5503580
:10445300750A01E50BA2E0402C1217AB8A108B11F1
:10446300A810A911124006E0687003A3E069601563
:1044730074051213EC1271BD1258FB122885E96002
:1044830004790480AC74051213ECE0A2E6502274A4
:10449300061213ECE05403701874051213ECE05485
:1044A3000C640C600CE0540C64086005751001800A
:1044B3000375100074051213ECE05403F8740268DA
:1044C300700C1271BD1258FB1227E90245F67401F4
:1044D30068703AE510A2E050031245FE740512130A
:1044E300ECA882A98374031213ECE8F0A3E9124B3E
:1044F300E3851882851983124608E0C0E07402122E
:1045030013ECD0E01242AF1229690245F6E86003CA
:104513000245F690035FE0640170108E828F83A3DF
:10452300A3A3A3A3A3E0700302448474221213EC95
:104533007402124BE3741A1213EC124228E510A210
:10454300E0500874051213EC1245FEE50BA2E0508F
:104553006AEE240FF582EF126881C0E0741712131C
:10456300ECD0E0F090031412548570030245F61268
:1045730017AB8A128B13A812A913741A1213ECE047
:10458300687003A3E069706B780C1210D0780A127C
:1045930010DC78081210D8A910740C1213ECAC823A
:1045A300AD8374211213ECAA82AB839003141246D9
:1045B300FE12298F740712113A8038780C1210D02A
:1045C300780A1210DC78081210D8900375120ECCFA
:1045D300EE2412F582EF1265AF74231213ECAC8252
:1045E300AD83740E1213ECAA82AB8312286D740987
:1045F30012113A742312113A026CA91271BD125DA1
:104603009A1227F522E8F0A3E91246102212461463
:1046130022F08E828F83A3A3A3A3A3A32274F712F2
:104623000ABF121F9702418574F7120ABF121FA90E
:10463300024185C082C083121FA3023E4874F71251
:104643000ABF121FAF02418574F7120ABF74091221
:1046530013ECE0F50878081210DC121FBB7401029A
:104663004182C082C083121FC7023E48C082C083FA
:10467300121FCD023E4874F7120ABF121FD3024124
:104683008574F7120ABFEAFEEBFF89087401650817
:10469300701479001215D7902D8DE493FC7900EEF8
:1046A300FAEFFB12154D02418574F4120ABF74F937
:1046B30012119EE9FE8A088B098C0A8D0B74131262
:1046C30013EC1258FF9005CE1254856027EE85181F
:1046D30082851983F074011213EC7808121394EA9B
:1046E300F8EBF974051213EC1242AB9005CE1246A7
:1046F300FE12298F0242A6FB90034BE0F8A3E0F5DC
:104703008388822274F7120ABF9010C3E0F97E00F7
:10471300800B12686D540D64017001190E1249016A
:104723005003E970ED02418574F7120ABF9010C47B
:10473300E0F97E00800B12686D548D64817001195D
:104743000E1249015003E970ED02418574F2120A19
:10475300BF890BE975F006A4240CF508E5F01239BE
:10476300AA8A0CE508250CFAE5093400FB121E059C
:104773008A0C8B0DAE0CAF0DEE4F6027AC08AD0964
:104783007900121D69124006E50BF0EE2508F8EFDB
:104793003509F98E828F83A3A3A3A3A3A3A3A3A302
:1047A300124228EEFAEFFB0256FA74F6120ABFEA37
:1047B300FEEBFF1215299010C2E0F8E9C3984009F7
:1047C3009003451258FF12152FEE2402F8EF125FE3
:1047D3000F900347125DC9900347E004F0EEFAEF30
:1047E300FB121535850882850983E00263C5C08203
:1047F300C08379009003458001091258FF8A828B98
:1048030083E582458370F2023E4874F7120ABFEAD9
:10481300FEEBFFEE4F6056900345125485604E88C1
:104823008289837A007B00EE65827003EF65836083
:104833000FAA82AB83124873E5824583602F80E71A
:1048430090034512487F687002EF698E828F8370F0
:104853000812421C9003458003126CBB124228EEDF
:10486300FAEFFB122939EEFAEFFB121E0B02418518
:1048730012487722124BF38882898322124BEFEE80
:1048830022C082C0839003458004888289831254A6
:1048930085600B88828983124F37EC4D70EC8A82D6
:1048A3008B83E4F0A3F0E849600688828983800360
:1048B300900345124195023E4874F7120ABF9003D4
:1048C3004580048A828B831248FC4B60257E0080DE
:1048D300010E12490150ECEE75F006A4FCADF0EAAE
:1048E3002CFCEB3DFDEC2410F582ED12495170E1F7
:1048F30080047A007B00024185125D9EEA22124900
:104903005AEEC3982274F7120ABF7D0080010D127C
:104913004956EDC3985034ED75F006A4FEA8F0E8AF
:10492300FFEA2EFEEB3FFFEE2410F582EF12495112
:1049330070DCED75F006A4FEE8FFEA2EFAEB3FFB10
:10494300EA2411F582EB1268814CF002418512686A
:104953008D692212495A221271C7EB3400F583E0A4
:10496300F82274F6120ABF12164F7A007B008025D4
:10497300EAF8EBF9E875F006A4F8ACF075F006E98F
:10498300A42C125D73127088A3E4125E69F0A31263
:10499300708E127205902D7812362940D37A007BDF
:1049A30000801C8A088B097403780812128112583C
:1049B30027A374FEF0A304125C49A3E412720590CA
:1049C3002D81124A0440DC7A007B00801D8A088B0B
:1049D300097403780812128174051264F9741012B1
:1049E3006D4074FEF0A304127205902D87124A04E1
:1049F30040DB902D8BE493900353F0124A0E024256
:104A030031E493F8C3EA98EB9400227CE87D037ABF
:104A1300107B009003C2E0F9121EBF2274F0120A49
:104A2300BF74F512119E8A088B09890A8C0BE9A2BF
:104A3300E050147508FC7509FFA2E15005D2E402A9
:104A43004AE1D2E3024AE11256E67003A3E0697039
:104A5300057900024BAEAC0A7902AA08AB0912161B
:104A63002BE960EDE50AF50C780C1210DC79027C79
:104A7300FE7DFFAA08AB0912546112113AE96003E3
:104A8300024BACE50AC2E5F50A9003B5E07051E5C7
:104A93000AA2E6404B74031213ECAC82AD83AA085E
:104AA300AB091228CDE97032124D828A0C8B0DA806
:104AB3000CA90DE8FEE9FFE8496025EE24020A0A85
:104AC300EF123339601AEE2402FCEF3400FD740355
:104AD3001213ECAA82AB831226DBE50AD2E5F50AB0
:104AE300900348E0F50C900368E0F50EA3E0F50FA2
:104AF300780E1210D87D017C00900348E0F9AA0ECD
:104B0300AB0F1215E3740212113AE9F8900348E06F
:104B130004F0E86003024BACE50AA2E55004740E0E
:104B230080027406C0E074011213ECD0E01261DB62
:104B33008A0E8B0FAE0EAF0FEE4F6069124BCC1285
:104B43004BE3888289837401F07478550AA3127148
:104B5300CDE50C1271CDA3E508F0E509124BBBE4DA
:104B6300F0E50AA2E5500F74031213ECAC82AD8397
:104B7300E82406124BB28E828F83A3A374FDF0A3A5
:104B830074FFF0E50B6015902D8EE493F8E50BC3ED
:104B9300985009EE24131261AEE50BF0EEFAEFFB29
:104BA30012146F80067910800279C7740B8049FA5A
:104BB300E93400FB1226DB2288828983A3A3A3A303
:104BC300124BC722125F42A322EE24171261BF7455
:104BD30001F01217A5EE241A1261BFEAF0A3EB222B
:104BE300F01271C13400124BED22F583124BF32204
:104BF300E0F8A3E0F922740D12113A7F08020DCCFC
:104C030074F6120ABF7A007B101266C9600890031B
:104C1300D47401F0802990066DE064019011147042
:104C230006E0FC79018004E0FC79037A007B001242
:104C3300154D902D76124C457A007B10124C530281
:104C43004231124C4922E493FC740193FD227B0010
:104C53009003C2E0F9121EB92274EC120ABF8A084B
:104C63008B098C0C8D0D890E74141213EC125640A3
:104C730074161213ECE0F510A3E0F51112182FE9E6
:104C830060077AFF7BFF024D7F901113E06402609F
:104C930003024D727900AA08AB09121631A90E124C
:104CA30016258A128B13AE12AF13EE4F7003024D0B
:104CB3005A8E828F83A3A3A3A3A3E064018E828F62
:104CC30083A3A370691258FF8E828F83A3A3A3A328
:104CD300A3A3E054186043902D8CE4938E828F83BA
:104CE300A3A3A3A3F0EA650C7003EB650D6014EABC
:104CF300650A7003EB650B600AEA65107003EB65E8
:104D030011701F78101210D8AC0AAD0BAA0CAB0DA2
:104D130012192B740212113A80089003671266B3BA
:104D2300A3F074FE6A700374FF6B601D804EA3A32F
:104D3300A3E0640360298E828F83A3A3A3A3A3E0CC
:104D4300640470057AFE024C878E828F83A3A3A32B
:104D5300A3A3E0640270089003B4E064027010122D
:104D63004D828B0BEA450B6006AA08AB09800DAA9E
:104D730008AB099003491246FE12298F026CA990D1
:104D830003751254671218EF2274F7120ABFEAFE72
:104D9300EBFF121421E9700AEEFAEFFB12142DE96E
:104DA3006006EEFAEFFB80047AFE7BFF0241857416
:104DB300F0120ABF8A0A8B0B8C0E8D0F89097508B6
:104DC3000012182FE979006003024F29AA0AAB0BDE
:104DD300121631A9091216258A0C8B0DAE0CAF0DD4
:104DE300EE4F60198E828F83A3A3A3A3A3E0640273
:104DF30070559003B4E064027003024F27AA0AAB14
:104E03000B90034F1246FE12298F1214338A0C8B18
:104E13000DA80CA90DE8497003024F2788828983E6
:104E2300A3A3A3A3A3E0A2E04003024F27750C01B1
:104E3300A2E150687901AC0AAD0BAA0EAB0F1215B3
:104E43007DE97064024F278E828F83A3A3A3A3A35C
:104E5300E064037005750C0280528E828F83A3A3D6
:104E6300A3A3A3E064016003024F27900375124FCD
:104E7300378E828F8312528C8A0C8B0DA80CA90D4E
:104E8300E84960D1902D85E493FA88828983E0C351
:104E93009A50C2A3E06003024F2780B988828983B6
:104EA300A3A3A3A3A3D2E1F0EE4F603A8E828F8334
:104EB300A3A3A3A3A3A3E05418602B7508018E82B8
:104EC3008F83A3A3120ECC750CFE750DFF780C1205
:104ED30010D87900AC0AAD0BAA0EAB0F12164374AF
:104EE3000412113A803E900368E0650E7004A3E05B
:104EF300650F7014902D8DE493FCA909AA0AAB0BDE
:104F030012154D750801801CA90CAC0AAD0BAA0E35
:104F1300AB0F12157DE9700C750801A909AA0AAB3C
:104F23000B1215D7A908024BFEE50C2415F582E5F3
:104F33000D1261C2125C1F2274EA120ABF74F012CE
:104F4300119E8A0C8B0D8C088D0974261213ECE0CC
:104F5300F514A3E0F5157512069003F51254856058
:104F630023900375124F37AA08AB091219198A1037
:104F73008B11EA4511600D8A828B83A3E07005795A
:104F830000025274E50C241DF50EE50D3400F50FF7
:104F9300850E82125471F51388828983A3A3A3E03B
:104FA300FA88828983A3A3A3A3E0F9EA2400FEE499
:104FB30039FFAA08AB091215DD850E82850F83120E
:104FC30052AFE029F50BE50AA2E5500375120E7402
:104FD30087550A70177418550A6418600FE50C2476
:104FE30017F582E50D1268816512600779011226B3
:104FF300C3808C530A78C3EE94F8EF94FF501D7965
:1050030000EEFAEFFB12527E601288828983A3A31B
:10501300A3A3A3A3E054186003024F8278081210DD
:10502300D87D001252A212113AE9F8740368700392
:10503300024F82E860030250ED7418550A700302B0
:1050430051A2E50AD2E0F50AA2E45004D2E1F50A3E
:10505300A90A1258F812527E605388828983A3A347
:10506300A3A3A3A3E05418604488828983A3A3A3C2
:10507300A3A3E064017036E5104511603090037519
:10508300124F378882898312528C8A0E8B0FA80E97
:10509300A90FE849601788828983A3E0600F851010
:1050A30082851183A31263D05003024F82E50AF570
:1050B3000E780E1210DC12529512113AE9702B7C05
:1050C300007D0085148285158374FFF0A3F0850CA1
:1050D30082850D83A3A3A3A3A3A3A3A3E0600312C9
:1050E3004F2CA90B1258F8121FC185148285158302
:1050F300E0F47003A3E0F460399003B4E064027059
:1051030003024F82125631E0FAA3E01246FA122943
:105113008FEA65087003EB65096003024F82EEFABC
:10512300EF1246FA12298F851482851583EAF0A3BC
:10513300EBF078081210D87D011252A212113AA98D
:105143000AEEFAEFFB1216318A088B09A808A9099F
:10515300900368E0687003A3E0696003025265EEA0
:10516300FAEFFB1214338A088B09A808A909E84946
:10517300606E88828983A3A3A3A3E06401600D8882
:10518300828983A3A3A3A3E0640270548518828554
:105193001983AC82AD83EEFAEFFB1228CD805590D4
:1051A3000361E0600FE50AF50E780E1210DC12526F
:1051B3009512113AE50AF50E780E1210DC79027C8D
:1051C300FE7DFFEEFAEFFB12546112113AE9600320
:1051D3000250ED85148285158374FFF0A3025134C8
:1051E3001217A5EAFCEBFD851882851983AA82AB09
:1051F300831226DB850C82850D83A3A3A3A3A3A31C
:10520300A3A3E06401700F124F2C74081213ECAACD
:1052130082AB831226DB12543B1260474430F508FD
:1052230078081210DC74011213EC85820885830957
:1052330078081210D8740B1213EC85820885830941
:1052430078081210D8E513F50878081210DC7900F5
:10525300EEFCEFFD1258F8121577740612113A029C
:105263004F8212543B1261B11252AFE50BF0121789
:10527300BD741012113A7F0E020DCC1216258A0E40
:105283008B0FA80EA90FE84922A3A3125D9E121942
:1052930019227901AC08AD09125D9312546122AC55
:1052A3000BA913125D931215E374022212604FA32C
:1052B300A3A3A32274F0120ABF74F012119E8A0CE6
:1052C3008B0DECFAEDFB750F089003F51254856016
:1052D300141263C98A828B83E58245836007A3E046
:1052E300700302543612543B3400125471F50B8888
:1052F300828983125444E0FBEC2400FEE43BFF88E4
:10530300828983A3A3125444A3A3E0FBECF508E42E
:105313003BF50988828983A3A3A3A3A3A3A3E0F5F1
:105323000EE50AA2E45003750F10A2E550067408B7
:10533300250FF50F748F550A700FE50C2417F582AE
:10534300E50D126881650F600879011226C30254C6
:1053530036530A707800E50AA2E4502212543B1235
:1053630068812408FCA3E03400FD74081213ECAA3E
:1053730082AB831226DB7808E50AC2E4F50AE50A64
:10538300A2E5502812543B12688128F8A3E03400A8
:10539300F9E82408FCE93400FD851882851983AAFD
:1053A30082AB831226DBE50AC2E5F50AAC0EA90B34
:1053B300EEFAEFFB1215E9E9F874036860759003E0
:1053C30068E06E7003A3E06F605EE87054E50AF571
:1053D3000F780F1210DC12545212113AE9705478FC
:1053E3000A1210DC74011213EC85820C85830D788C
:1053F3000C1210D8740B1213EC85820C85830D7874
:105403000C1210D8E50BF50A780A1210DCA90EACC1
:1054130008AD09EEFAEFFB121577740612113A8004
:1054230012740468700D80B7780A1210DC1254529B
:1054330012113A7410024BFBE50C241DF582E50DA5
:1054430022A3A3A3E0FC88828983A3A3A3A3227935
:10545300011256381261C212546712546122121596
:10546300A1740122E0FCA3E0FDAA08AB0922F583A5
:10547300124877A3E0F50A88828983A3A3E02290E8
:105483000339125DFA2274E8120ABF74F512119EF1
:10549300EAFEEBFF8C088D09891474231213ECE0E8
:1054A300F50F74241213ECE0F512A3E0F513742640
:1054B3001213ECE0F516A3E0F51774281213ECE0D1
:1054C300F50EA90F1215EF8A108B1174011213EC4C
:1054D3007408F0E50EA2E450037410F0E50EA2E5A3
:1054E3005004E02408F0851882851983AA82AB83CF
:1054F3001218178A0C8B0DEA450D7003025618EA31
:105503002417F582EB12562A1217A5E50C241AF577
:1055130082E50D1261B112419574031213ECAC8252
:10552300AD83AA10AB111228CDE9601D1256227467
:10553300031213ECA882A983E50C2418F582E50D68
:105543001261B1E8F0A3E98024E50EA2E4501FE55F
:10555300106E7003E5116F7015125622E50C2418B6
:10556300F582E50D1261B1E512F0A3E513F01256D1
:1055730031125640850A82F5837402F0A3E50E12B8
:105583005648E50FF0EE850A82850B83A3A3A3F0AB
:10559300EF850A82850B83A3A3A3A3125648A3A373
:1055A300A3E508F0E509850A82850B83A3A3A3A3DA
:1055B300A3A3F0AA10AB111215DDE92514850A8205
:1055C300850B83A3A3A3A3A3A3A3F0750800E50EF0
:1055D300A2E45011AC12AD13E50A2408FAE50B124C
:1055E3004BB4750808E50EA2E55014AC16AD17E5EB
:1055F3000A2508F8E50B3400F9E82408124BB285B4
:105603000C82850D83A3A3E510F0A3E511F0AA0C8A
:10561300AB0D12146F740B12113A7F10020DCCE50F
:105623000C2416F582E50D1261C27401F0221256A4
:10563300381261C222E50C1271C8E50D22E0F50AA9
:10564300A3E0F50B22F0850A82850B83A3A32274C2
:10565300F2120ABF8A088B09ECFEEDFF890A790072
:105663001256E67003A3E069700479018073750B29
:1056730001900368E065087004A3E06509601F7585
:105683000B00780B1210DCA90AEEFCEFFDAA08ABA5
:105693000912186B740112113AE9F50B8041790074
:1056A300EEFAEFFB121625EA4B602B8A828B83A35B
:1056B300A3A3A3A3A3E05418601C7508FE7509FFF8
:1056C30078081210D88A828B83A3A3120ECC126F90
:1056D300DD12113A80097901EEFAEFFB121505A9E3
:1056E3000B80141216318A0C8B0DA80CA90D900394
:1056F30068E0682212113A7F06020DCC74F4120A94
:10570300BF75084D75090E7A10126CE58B0BEA45CF
:105713000B7003124A0E900353E014F0700C902D9B
:105723008BE493900353F012163D7E007F00806C50
:10573300850882850983A3A3A3A3E06059F4605677
:10574300E5082404F582E5091266AD7049850882EF
:10575300850983A3A3A3A3A3E06403701979028536
:105763000882850983124F37850882850983A3A39D
:105773001258FF12157D850882850983A3A3A3A36D
:10578300A3E06401601085088285098374FEF0A399
:1057930004125859E4F0123B501239A2902D7A1298
:1057A3006E41408C7E007F00803912174B8E088F2C
:1057B300097403780812128174C52508FC740F3527
:1057C30009FD7A897B15121739EA4B70DD8E088F34
:1057D3000974037808121281125827127088E4F0B2
:1057E300123B50902D81E493F8C3EE98EF94005050
:1057F3001B8E088F097403780812128112582FE840
:105803002407F582E91266AD70D680A17E007F0081
:10581300800A12583A600214F0123B50126E3E4056
:10582300F10243D212582F888289832274C5250836
:10583300F8740F3509F922EEF8EFF9E875F006A4CC
:10584300F8AAF075F006E9A42AF9746528F58274BC
:105853000F39F583E022125860A3A3A322F0850831
:1058630082850983A3A32274F7120ABF74E112117C
:105873009EECFEEDFF750800EE4F60728A828B830B
:10588300E0241C1266DE12548560638A828B8312C5
:1058930058FF851882851983AC82AD83EA241BF5F2
:1058A30082EB1265AFEA241CF582EB1258FB121748
:1058B3008D740B1213EC1259037003A3E069702E5D
:1058C30074021213ECE064017024741D1213EC12C1
:1058D30046FEE064017017741D1213EC124700A317
:1058E300A3E0F88E828F83E0687003750801A9082E
:1058F300741F0241821256383400F583125D9E22D2
:105903001232F7E0682274F4120ABFE970247900B6
:1059130090034D1246FE12298F8A0A8B0BAE0AAFF3
:105923000B74FE6E700374FF6F701A902D88E493EE
:105933006013790190034D1246FE12298F8A0A8B58
:105943000BAE0AAF0B1217DB023CA474F6120ABFAC
:1059530074F312119E121D7B8A088B09AE08AF09DE
:10596300900368E06E7003A3E06F60E91217B1EA79
:105973006E7002EB6F60DEEEFAEFFB12182FE97028
:10598300D4EE4F60D0851882851983E4F004121396
:10599300ECEEF0A3EF1259B1E970BA74FE6E700326
:1059A30074FF6F60B0EEFAEFFB740D02422E1242E9
:1059B300B312282522C082C0831217DB023E487F20
:1059C3000A020DCC74F2120ABFEAFEEBFF8C0A8DB9
:1059D3000B8908740E1213ECE0F50974FC6E700366
:1059E30074FF6F700579000256FA79001216318A36
:1059F3000C8B0DAE0CAF0D900368E06E7003A3E04B
:105A03006F7006E509A2E650DCA909126ECB70613E
:105A130079007AFE7BFF126ECB70567418550970AD
:105A230003025AFE7800790080031234F1902D7A34
:105A33001234E84003025AFEE8FAE9FBEA75F0077C
:105A4300A4FAACF075F007EBA42CFB74532AF5828F
:105A5300740E3BF583E0541870D0E875F007A4F892
:105A6300AAF075F007E9A42AF9744D28F8740E39E1
:105A7300F988828983A3A3A3A3A3A3E0541860098D
:105A83007418550970030259E888828983EEF0A3DC
:105A9300EFF074FE650A700474FF650B6003125C1B
:105AA3002588828983A3A3A3A3A3A3E509F0A2E086
:105AB300500D88828983A3A3A3A3A3A3D2E2F07486
:105AC30001650888828983A3A3A3A3A37038740103
:105AD300125C49E054186028902D8CE493888289E5
:105AE30083A3A3A3A3125C131219198B0DEA450D0B
:105AF30060030259E878007900803979020259EA93
:105B0300900367E080D7E0640170030259E888825C
:105B13008983A3A3A3A3A3A3E054186007902D8CA8
:105B2300E4938004900366E0124BBBE508F002594E
